{
  "contractName": "EWasteTracking",
  "abi": [
    {
      "anonymous": false,
      "inputs": [
        {
          "indexed": true,
          "internalType": "uint256",
          "name": "deviceId",
          "type": "uint256"
        },
        {
          "indexed": false,
          "internalType": "string",
          "name": "name",
          "type": "string"
        },
        {
          "indexed": true,
          "internalType": "address",
          "name": "manufacturer",
          "type": "address"
        }
      ],
      "name": "DeviceRegistered",
      "type": "event"
    },
    {
      "anonymous": false,
      "inputs": [
        {
          "indexed": true,
          "internalType": "uint256",
          "name": "deviceId",
          "type": "uint256"
        },
        {
          "indexed": true,
          "internalType": "address",
          "name": "from",
          "type": "address"
        },
        {
          "indexed": true,
          "internalType": "address",
          "name": "to",
          "type": "address"
        }
      ],
      "name": "OwnershipTransferred",
      "type": "event"
    },
    {
      "anonymous": false,
      "inputs": [
        {
          "indexed": true,
          "internalType": "uint256",
          "name": "reportId",
          "type": "uint256"
        },
        {
          "indexed": true,
          "internalType": "uint256",
          "name": "deviceId",
          "type": "uint256"
        },
        {
          "indexed": true,
          "internalType": "address",
          "name": "recycler",
          "type": "address"
        }
      ],
      "name": "RecyclingReportSubmitted",
      "type": "event"
    },
    {
      "anonymous": false,
      "inputs": [
        {
          "indexed": true,
          "internalType": "uint256",
          "name": "reportId",
          "type": "uint256"
        },
        {
          "indexed": true,
          "internalType": "address",
          "name": "verifiedBy",
          "type": "address"
        }
      ],
      "name": "ReportVerified",
      "type": "event"
    },
    {
      "anonymous": false,
      "inputs": [
        {
          "indexed": true,
          "internalType": "uint256",
          "name": "deviceId",
          "type": "uint256"
        },
        {
          "indexed": false,
          "internalType": "enum EWasteTracking.DeviceStatus",
          "name": "status",
          "type": "uint8"
        }
      ],
      "name": "StatusUpdated",
      "type": "event"
    },
    {
      "anonymous": false,
      "inputs": [
        {
          "indexed": true,
          "internalType": "address",
          "name": "user",
          "type": "address"
        },
        {
          "indexed": false,
          "internalType": "enum EWasteTracking.Role",
          "name": "role",
          "type": "uint8"
        }
      ],
      "name": "UserRegistered",
      "type": "event"
    },
    {
      "inputs": [],
      "name": "deviceCount",
      "outputs": [
        {
          "internalType": "uint256",
          "name": "",
          "type": "uint256"
        }
      ],
      "stateMutability": "view",
      "type": "function",
      "constant": true
    },
    {
      "inputs": [
        {
          "internalType": "uint256",
          "name": "",
          "type": "uint256"
        },
        {
          "internalType": "uint256",
          "name": "",
          "type": "uint256"
        }
      ],
      "name": "deviceOwnerHistory",
      "outputs": [
        {
          "internalType": "address",
          "name": "",
          "type": "address"
        }
      ],
      "stateMutability": "view",
      "type": "function",
      "constant": true
    },
    {
      "inputs": [
        {
          "internalType": "uint256",
          "name": "",
          "type": "uint256"
        }
      ],
      "name": "devices",
      "outputs": [
        {
          "internalType": "uint256",
          "name": "id",
          "type": "uint256"
        },
        {
          "internalType": "string",
          "name": "name",
          "type": "string"
        },
        {
          "internalType": "string",
          "name": "manufacturer",
          "type": "string"
        },
        {
          "internalType": "address",
          "name": "manufacturerAddress",
          "type": "address"
        },
        {
          "internalType": "address",
          "name": "currentOwner",
          "type": "address"
        },
        {
          "internalType": "enum EWasteTracking.DeviceStatus",
          "name": "status",
          "type": "uint8"
        },
        {
          "internalType": "uint256",
          "name": "manufacturedDate",
          "type": "uint256"
        },
        {
          "internalType": "uint256",
          "name": "lastUpdated",
          "type": "uint256"
        },
        {
          "internalType": "bool",
          "name": "exists",
          "type": "bool"
        }
      ],
      "stateMutability": "view",
      "type": "function",
      "constant": true
    },
    {
      "inputs": [
        {
          "internalType": "uint256",
          "name": "",
          "type": "uint256"
        }
      ],
      "name": "recyclingReports",
      "outputs": [
        {
          "internalType": "uint256",
          "name": "id",
          "type": "uint256"
        },
        {
          "internalType": "uint256",
          "name": "deviceId",
          "type": "uint256"
        },
        {
          "internalType": "address",
          "name": "recyclerAddress",
          "type": "address"
        },
        {
          "internalType": "uint256",
          "name": "weight",
          "type": "uint256"
        },
        {
          "internalType": "string",
          "name": "components",
          "type": "string"
        },
        {
          "internalType": "uint256",
          "name": "timestamp",
          "type": "uint256"
        },
        {
          "internalType": "bool",
          "name": "verified",
          "type": "bool"
        },
        {
          "internalType": "address",
          "name": "verifiedBy",
          "type": "address"
        },
        {
          "internalType": "bool",
          "name": "exists",
          "type": "bool"
        }
      ],
      "stateMutability": "view",
      "type": "function",
      "constant": true
    },
    {
      "inputs": [],
      "name": "reportCount",
      "outputs": [
        {
          "internalType": "uint256",
          "name": "",
          "type": "uint256"
        }
      ],
      "stateMutability": "view",
      "type": "function",
      "constant": true
    },
    {
      "inputs": [
        {
          "internalType": "address",
          "name": "",
          "type": "address"
        }
      ],
      "name": "users",
      "outputs": [
        {
          "internalType": "address",
          "name": "walletAddress",
          "type": "address"
        },
        {
          "internalType": "enum EWasteTracking.Role",
          "name": "role",
          "type": "uint8"
        },
        {
          "internalType": "bool",
          "name": "isRegistered",
          "type": "bool"
        }
      ],
      "stateMutability": "view",
      "type": "function",
      "constant": true
    },
    {
      "inputs": [
        {
          "internalType": "enum EWasteTracking.Role",
          "name": "_role",
          "type": "uint8"
        }
      ],
      "name": "registerUser",
      "outputs": [],
      "stateMutability": "nonpayable",
      "type": "function"
    },
    {
      "inputs": [
        {
          "internalType": "address",
          "name": "_user",
          "type": "address"
        }
      ],
      "name": "getUserRole",
      "outputs": [
        {
          "internalType": "enum EWasteTracking.Role",
          "name": "",
          "type": "uint8"
        }
      ],
      "stateMutability": "view",
      "type": "function",
      "constant": true
    },
    {
      "inputs": [
        {
          "internalType": "address",
          "name": "_user",
          "type": "address"
        }
      ],
      "name": "isUserRegistered",
      "outputs": [
        {
          "internalType": "bool",
          "name": "",
          "type": "bool"
        }
      ],
      "stateMutability": "view",
      "type": "function",
      "constant": true
    },
    {
      "inputs": [
        {
          "internalType": "string",
          "name": "_name",
          "type": "string"
        },
        {
          "internalType": "string",
          "name": "_manufacturer",
          "type": "string"
        }
      ],
      "name": "registerDevice",
      "outputs": [
        {
          "internalType": "uint256",
          "name": "",
          "type": "uint256"
        }
      ],
      "stateMutability": "nonpayable",
      "type": "function"
    },
    {
      "inputs": [
        {
          "internalType": "uint256",
          "name": "_deviceId",
          "type": "uint256"
        },
        {
          "internalType": "address",
          "name": "_newOwner",
          "type": "address"
        }
      ],
      "name": "transferOwnership",
      "outputs": [],
      "stateMutability": "nonpayable",
      "type": "function"
    },
    {
      "inputs": [
        {
          "internalType": "uint256",
          "name": "_deviceId",
          "type": "uint256"
        }
      ],
      "name": "claimDevice",
      "outputs": [],
      "stateMutability": "nonpayable",
      "type": "function"
    },
    {
      "inputs": [
        {
          "internalType": "uint256",
          "name": "_deviceId",
          "type": "uint256"
        },
        {
          "internalType": "enum EWasteTracking.DeviceStatus",
          "name": "_status",
          "type": "uint8"
        }
      ],
      "name": "updateDeviceStatus",
      "outputs": [],
      "stateMutability": "nonpayable",
      "type": "function"
    },
    {
      "inputs": [
        {
          "internalType": "uint256",
          "name": "_deviceId",
          "type": "uint256"
        }
      ],
      "name": "getDevice",
      "outputs": [
        {
          "internalType": "uint256",
          "name": "id",
          "type": "uint256"
        },
        {
          "internalType": "string",
          "name": "name",
          "type": "string"
        },
        {
          "internalType": "string",
          "name": "manufacturer",
          "type": "string"
        },
        {
          "internalType": "address",
          "name": "manufacturerAddress",
          "type": "address"
        },
        {
          "internalType": "address",
          "name": "currentOwner",
          "type": "address"
        },
        {
          "internalType": "enum EWasteTracking.DeviceStatus",
          "name": "status",
          "type": "uint8"
        },
        {
          "internalType": "uint256",
          "name": "manufacturedDate",
          "type": "uint256"
        },
        {
          "internalType": "uint256",
          "name": "lastUpdated",
          "type": "uint256"
        }
      ],
      "stateMutability": "view",
      "type": "function",
      "constant": true
    },
    {
      "inputs": [
        {
          "internalType": "uint256",
          "name": "_deviceId",
          "type": "uint256"
        }
      ],
      "name": "getDeviceHistory",
      "outputs": [
        {
          "internalType": "address[]",
          "name": "",
          "type": "address[]"
        }
      ],
      "stateMutability": "view",
      "type": "function",
      "constant": true
    },
    {
      "inputs": [
        {
          "internalType": "address",
          "name": "_owner",
          "type": "address"
        }
      ],
      "name": "getDevicesByOwner",
      "outputs": [
        {
          "internalType": "uint256[]",
          "name": "",
          "type": "uint256[]"
        }
      ],
      "stateMutability": "view",
      "type": "function",
      "constant": true
    },
    {
      "inputs": [
        {
          "internalType": "uint256",
          "name": "_deviceId",
          "type": "uint256"
        },
        {
          "internalType": "uint256",
          "name": "_weight",
          "type": "uint256"
        },
        {
          "internalType": "string",
          "name": "_components",
          "type": "string"
        }
      ],
      "name": "submitRecyclingReport",
      "outputs": [
        {
          "internalType": "uint256",
          "name": "",
          "type": "uint256"
        }
      ],
      "stateMutability": "nonpayable",
      "type": "function"
    },
    {
      "inputs": [
        {
          "internalType": "uint256",
          "name": "_reportId",
          "type": "uint256"
        }
      ],
      "name": "verifyReport",
      "outputs": [],
      "stateMutability": "nonpayable",
      "type": "function"
    },
    {
      "inputs": [
        {
          "internalType": "uint256",
          "name": "_reportId",
          "type": "uint256"
        }
      ],
      "name": "getRecyclingReport",
      "outputs": [
        {
          "internalType": "uint256",
          "name": "id",
          "type": "uint256"
        },
        {
          "internalType": "uint256",
          "name": "deviceId",
          "type": "uint256"
        },
        {
          "internalType": "address",
          "name": "recyclerAddress",
          "type": "address"
        },
        {
          "internalType": "uint256",
          "name": "weight",
          "type": "uint256"
        },
        {
          "internalType": "string",
          "name": "components",
          "type": "string"
        },
        {
          "internalType": "uint256",
          "name": "timestamp",
          "type": "uint256"
        },
        {
          "internalType": "bool",
          "name": "verified",
          "type": "bool"
        },
        {
          "internalType": "address",
          "name": "verifiedBy",
          "type": "address"
        }
      ],
      "stateMutability": "view",
      "type": "function",
      "constant": true
    },
    {
      "inputs": [],
      "name": "getAllDevices",
      "outputs": [
        {
          "internalType": "uint256",
          "name": "",
          "type": "uint256"
        }
      ],
      "stateMutability": "view",
      "type": "function",
      "constant": true
    },
    {
      "inputs": [],
      "name": "getAllReports",
      "outputs": [
        {
          "internalType": "uint256",
          "name": "",
          "type": "uint256"
        }
      ],
      "stateMutability": "view",
      "type": "function",
      "constant": true
    }
  ],
  "bytecode": "0x608060405234801561001057600080fd5b506122f8806100206000396000f3fe608060405234801561001057600080fd5b50600436106101375760003560e01c80634c32f347116100b85780637a2a557d1161007c5780637a2a557d14610308578063a87430ba14610333578063b280193514610381578063f2fe7028146103a8578063f3d3ddfa146103bb578063fbcc2cf7146103c357600080fd5b80634c32f347146102b157806351b0e987146102c4578063535bca9a146102e4578063633e95fd146102ed5780637a2a530d1461030057600080fd5b8063185c6f84116100ff578063185c6f84146101ff5780631df337c214610216578063278208511461023e57806329507f731461027e57806331c4995b1461029157600080fd5b806302b8c8cd1461013c57806309208a751461015157806309f110b11461016457806310ff8e3114610194578063163f7522146101bc575b600080fd5b61014f61014a366004611b8d565b6103d6565b005b61014f61015f366004611bb1565b61057b565b610177610172366004611bb1565b610731565b60405161018b989796959493929190611c44565b60405180910390f35b6101a76101a2366004611bb1565b610988565b60405161018b99989796959493929190611cb5565b6101ef6101ca366004611d4c565b6001600160a01b0316600090815260208190526040902054600160a81b900460ff1690565b604051901515815260200161018b565b61020860065481565b60405190815260200161018b565b610229610224366004611bb1565b610af6565b60405161018b99989796959493929190611d67565b61027161024c366004611d4c565b6001600160a01b0316600090815260208190526040902054600160a01b900460ff1690565b60405161018b9190611dca565b61014f61028c366004611ddd565b610be4565b6102a461029f366004611bb1565b610e4c565b60405161018b9190611e09565b6102086102bf366004611ef9565b610eee565b6102d76102d2366004611d4c565b61114b565b60405161018b9190611f5d565b61020860055481565b6102086102fb366004611f95565b6111b7565b600554610208565b61031b610316366004611fe5565b6114d7565b6040516001600160a01b03909116815260200161018b565b610372610341366004611d4c565b6000602081905290815260409020546001600160a01b0381169060ff600160a01b8204811691600160a81b90041683565b60405161018b93929190612007565b61039461038f366004611bb1565b61150f565b60405161018b989796959493929190612036565b61014f6103b636600461208e565b61171a565b600654610208565b61014f6103d1366004611bb1565b61190b565b60008160048111156103ea576103ea611c10565b0361042b5760405162461bcd60e51b815260206004820152600c60248201526b496e76616c696420726f6c6560a01b60448201526064015b60405180910390fd5b33600090815260208190526040902054600160a81b900460ff16156104925760405162461bcd60e51b815260206004820152601760248201527f5573657220616c726561647920726567697374657265640000000000000000006044820152606401610422565b6040518060600160405280336001600160a01b031681526020018260048111156104be576104be611c10565b8152600160209182015233600090815280825260409020825181546001600160a01b03919091166001600160a01b031982168117835592840151919283916001600160a81b03191617600160a01b83600481111561051e5761051e611c10565b02179055506040918201518154901515600160a81b0260ff60a81b199091161790555133907f8e18574f8a7333e6a87112742a55853a643e2f0550f4e1a3a2c3f1bb2994441d90610570908490611dca565b60405180910390a250565b33600090815260208190526040902054600490600160a81b900460ff166105b45760405162461bcd60e51b8152600401610422906120be565b8060048111156105c6576105c6611c10565b33600090815260208190526040902054600160a01b900460ff1660048111156105f1576105f1611c10565b1461060e5760405162461bcd60e51b8152600401610422906120eb565b6000828152600260205260409020600601548290600160a81b900460ff166106705760405162461bcd60e51b815260206004820152601560248201527414995c1bdc9d08191bd95cc81b9bdd08195e1a5cdd605a1b6044820152606401610422565b60008381526002602052604090206006015460ff16156106d25760405162461bcd60e51b815260206004820152601760248201527f5265706f727420616c72656164792076657269666965640000000000000000006044820152606401610422565b60008381526002602052604080822060060180543361010081026001600160a81b0319909216919091176001179091559051909185917fd685fe030a46282a0393c3cd9124e38a9c4cfd1ad727c8491d166ee9df0697b49190a3505050565b600081815260016020526040812060070154606090819083908190819081908190899060ff166107735760405162461bcd60e51b815260040161042290612116565b60008a8152600160208181526040808420815161012081019092528054825292830180549193928401916107a690612145565b80601f01602080910402602001604051908101604052809291908181526020018280546107d290612145565b801561081f5780601f106107f45761010080835404028352916020019161081f565b820191906000526020600020905b81548152906001019060200180831161080257829003601f168201915b5050505050815260200160028201805461083890612145565b80601f016020809104026020016040519081016040528092919081815260200182805461086490612145565b80156108b15780601f10610886576101008083540402835291602001916108b1565b820191906000526020600020905b81548152906001019060200180831161089457829003601f168201915b505050918352505060038201546001600160a01b0390811660208301526004808401549182166040840152606090920191600160a01b90910460ff16908111156108fd576108fd611c10565b600481111561090e5761090e611c10565b815260200160058201548152602001600682015481526020016007820160009054906101000a900460ff1615151515815250509050806000015181602001518260400151836060015184608001518560a001518660c001518760e00151995099509950995099509950995099505050919395975091939597565b6001602081905260009182526040909120805491810180546109a990612145565b80601f01602080910402602001604051908101604052809291908181526020018280546109d590612145565b8015610a225780601f106109f757610100808354040283529160200191610a22565b820191906000526020600020905b815481529060010190602001808311610a0557829003601f168201915b505050505090806002018054610a3790612145565b80601f0160208091040260200160405190810160405280929190818152602001828054610a6390612145565b8015610ab05780601f10610a8557610100808354040283529160200191610ab0565b820191906000526020600020905b815481529060010190602001808311610a9357829003601f168201915b505050600384015460048501546005860154600687015460079097015495966001600160a01b0393841696938316955060ff600160a01b90930483169450909290911689565b6002602081905260009182526040909120805460018201549282015460038301546004840180549395946001600160a01b0390931693919291610b3890612145565b80601f0160208091040260200160405190810160405280929190818152602001828054610b6490612145565b8015610bb15780601f10610b8657610100808354040283529160200191610bb1565b820191906000526020600020905b815481529060010190602001808311610b9457829003601f168201915b50505050600583015460069093015491929160ff808216925061010082046001600160a01b031691600160a81b90041689565b600082815260016020526040902060070154829060ff16610c175760405162461bcd60e51b815260040161042290612116565b6000818152600160205260409020600401546001600160a01b03163314610c775760405162461bcd60e51b81526020600482015260146024820152732737ba103a3432903232bb34b1b29037bbb732b960611b6044820152606401610422565b6001600160a01b038216610ccd5760405162461bcd60e51b815260206004820152601960248201527f496e76616c6964206e6577206f776e65722061646472657373000000000000006044820152606401610422565b336001600160a01b03831603610d255760405162461bcd60e51b815260206004820152601b60248201527f43616e6e6f74207472616e7366657220746f20796f757273656c6600000000006044820152606401610422565b6001600160a01b038216600090815260208190526040902054600160a81b900460ff16610d945760405162461bcd60e51b815260206004820152601860248201527f4e6577206f776e6572206e6f74207265676973746572656400000000000000006044820152606401610422565b6000838152600160208181526040808420600480820180546001600160a01b038a81166001600160a81b031983168117600160a01b179093554260069095019490945560038652848820805480890182559089528689200180546001600160a01b0319168317905581885291855283872080549687018155875293862090940188905590519216929091839187917f16b85f49bf01212961345d3016c9a531894accf62eb7680f2045d79185cc0ec09190a450505050565b600081815260016020526040902060070154606090829060ff16610e825760405162461bcd60e51b815260040161042290612116565b60008381526003602090815260409182902080548351818402810184019094528084529091830182828015610ee057602002820191906000526020600020905b81546001600160a01b03168152600190910190602001808311610ec2575b505050505091505b50919050565b33600090815260208190526040812054600190600160a81b900460ff16610f275760405162461bcd60e51b8152600401610422906120be565b806004811115610f3957610f39611c10565b33600090815260208190526040902054600160a01b900460ff166004811115610f6457610f64611c10565b14610f815760405162461bcd60e51b8152600401610422906120eb565b60058054906000610f9183612179565b90915550506005546040805161012081018252828152602080820188815282840188905233606084018190526080840152600060a084018190524260c0850181905260e08501526001610100850181905286825292839052939093208251815592519192919082019061100490826121ef565b506040820151600282019061101990826121ef565b5060608201516003820180546001600160a01b03199081166001600160a01b039384161790915560808401516004808501805493841692909416918217845560a086015193926001600160a81b03191690911790600160a01b90849081111561108457611084611c10565b021790555060c0820151600582015560e08201516006820155610100909101516007909101805460ff19169115159190911790556000818152600360209081526040808320805460018181018355918552838520018054336001600160a01b031990911681179091558085526004845282852080549283018155855292909320909201839055905182907f47e859fc0ced66e915331b88daec3309f8897139e74cea7fa0b9de53a11add2d9061113b9089906122af565b60405180910390a3949350505050565b6001600160a01b0381166000908152600460209081526040918290208054835181840281018401909452808452606093928301828280156111ab57602002820191906000526020600020905b815481526020019060010190808311611197575b50505050509050919050565b33600090815260208190526040812054600390600160a81b900460ff166111f05760405162461bcd60e51b8152600401610422906120be565b80600481111561120257611202611c10565b33600090815260208190526040902054600160a01b900460ff16600481111561122d5761122d611c10565b1461124a5760405162461bcd60e51b8152600401610422906120eb565b600085815260016020526040902060070154859060ff1661127d5760405162461bcd60e51b815260040161042290612116565b60026000878152600160205260409020600490810154600160a01b900460ff16908111156112ad576112ad611c10565b14806112e6575060036000878152600160205260409020600490810154600160a01b900460ff16908111156112e4576112e4611c10565b145b8061131e575060046000878152600160205260409020600490810154600160a01b900460ff169081111561131c5761131c611c10565b145b6113785760405162461bcd60e51b815260206004820152602560248201527f446576696365206e6f7420726561647920666f722072656379636c696e672072604482015264195c1bdc9d60da1b6064820152608401610422565b6006805490600061138883612179565b9091555050600654604080516101208101825282815260208082018a815233838501908152606084018b8152608085018b81524260a0870152600060c0870181905260e087018190526001610100880181905289825260029687905297902086518155935196840196909655905192820180546001600160a01b0319166001600160a01b0390941693909317909255905160038201559151909190600482019061143290826121ef565b5060a0820151600582015560c08201516006909101805460e0840151610100948501516001600160a81b0319909216931515610100600160a81b031916939093176001600160a01b039093169093029190911760ff60a81b1916600160a81b921515929092029190911790556040513390889083907ff2c7529d05b1f576da04c8c6cff02873f8f9197be6134a2d1d0694949cfab1d290600090a49695505050505050565b600360205281600052604060002081815481106114f357600080fd5b6000918252602090912001546001600160a01b03169150829050565b60008060008060606000806000886002600082815260200190815260200160002060060160159054906101000a900460ff166115855760405162461bcd60e51b815260206004820152601560248201527414995c1bdc9d08191bd95cc81b9bdd08195e1a5cdd605a1b6044820152606401610422565b60008a815260026020818152604080842081516101208101835281548152600182015493810193909352928301546001600160a01b031690820152600382015460608201526004820180549192916080840191906115e290612145565b80601f016020809104026020016040519081016040528092919081815260200182805461160e90612145565b801561165b5780601f106116305761010080835404028352916020019161165b565b820191906000526020600020905b81548152906001019060200180831161163e57829003601f168201915b50505050508152602001600582015481526020016006820160009054906101000a900460ff161515151581526020016006820160019054906101000a90046001600160a01b03166001600160a01b03166001600160a01b031681526020016006820160159054906101000a900460ff1615151515815250509050806000015181602001518260400151836060015184608001518560a001518660c001518760e00151995099509950995099509950995099505050919395975091939597565b33600090815260208190526040902054600390600160a81b900460ff166117535760405162461bcd60e51b8152600401610422906120be565b80600481111561176557611765611c10565b33600090815260208190526040902054600160a01b900460ff16600481111561179057611790611c10565b146117ad5760405162461bcd60e51b8152600401610422906120eb565b600083815260016020526040902060070154839060ff166117e05760405162461bcd60e51b815260040161042290612116565b60028360048111156117f4576117f4611c10565b14806118115750600383600481111561180f5761180f611c10565b145b8061182d5750600483600481111561182b5761182b611c10565b145b6118795760405162461bcd60e51b815260206004820152601b60248201527f496e76616c69642073746174757320666f722072656379636c657200000000006044820152606401610422565b600084815260016020526040902060049081018054859260ff60a01b1990911690600160a01b9084908111156118b1576118b1611c10565b021790555060008481526001602052604090819020426006909101555184907f2da7b23ca63c1eb969eee5fae4acb98186abecf5358b0354a82a5183ebca6b2a906118fd908690611dca565b60405180910390a250505050565b600081815260016020526040902060070154819060ff1661193e5760405162461bcd60e51b815260040161042290612116565b33600090815260208190526040902054600160a81b900460ff166119745760405162461bcd60e51b8152600401610422906120be565b600233600090815260208190526040902054600160a01b900460ff1660048111156119a1576119a1611c10565b146119ee5760405162461bcd60e51b815260206004820181905260248201527f4f6e6c7920636f6e73756d6572732063616e20636c61696d20646576696365736044820152606401610422565b600080838152600160205260409020600490810154600160a01b900460ff1690811115611a1d57611a1d611c10565b14611a635760405162461bcd60e51b815260206004820152601660248201527511195d9a58d948185b1c9958591e4818db185a5b595960521b6044820152606401610422565b600082815260016020526040902060040154336001600160a01b0390911603611abe5760405162461bcd60e51b815260206004820152600d60248201526c20b63932b0b23c9037bbb732b960991b6044820152606401610422565b6000828152600160208181526040808420600480820180546001600160a81b031981163360ff60a01b19811691909117600160a01b179092554260069094019390935560038552838720805480880182559088528588200180546001600160a01b03191682179055808752908452828620805495860181558652928520909301869055516001600160a01b03909216929091839186917f16b85f49bf01212961345d3016c9a531894accf62eb7680f2045d79185cc0ec09190a4505050565b60058110611b8a57600080fd5b50565b600060208284031215611b9f57600080fd5b8135611baa81611b7d565b9392505050565b600060208284031215611bc357600080fd5b5035919050565b6000815180845260005b81811015611bf057602081850181015186830182015201611bd4565b506000602082860101526020601f19601f83011685010191505092915050565b634e487b7160e01b600052602160045260246000fd5b60058110611b8a57634e487b7160e01b600052602160045260246000fd5b60006101008a8352806020840152611c5e8184018b611bca565b90508281036040840152611c72818a611bca565b6001600160a01b038981166060860152881660808501529150611c96905085611c26565b8460a08301528360c08301528260e08301529998505050505050505050565b60006101208b8352806020840152611ccf8184018c611bca565b90508281036040840152611ce3818b611bca565b6001600160a01b038a81166060860152891660808501529150611d07905086611c26565b8560a08301528460c08301528360e08301528215156101008301529a9950505050505050505050565b80356001600160a01b0381168114611d4757600080fd5b919050565b600060208284031215611d5e57600080fd5b611baa82611d30565b60006101208b83528a602084015260018060a01b03808b166040850152896060850152816080850152611d9c8285018a611bca565b60a085019890985295151560c084015250509190921660e08201529015156101009091015295945050505050565b60208101611dd783611c26565b91905290565b60008060408385031215611df057600080fd5b82359150611e0060208401611d30565b90509250929050565b6020808252825182820181905260009190848201906040850190845b81811015611e4a5783516001600160a01b031683529284019291840191600101611e25565b50909695505050505050565b634e487b7160e01b600052604160045260246000fd5b600082601f830112611e7d57600080fd5b813567ffffffffffffffff80821115611e9857611e98611e56565b604051601f8301601f19908116603f01168101908282118183101715611ec057611ec0611e56565b81604052838152866020858801011115611ed957600080fd5b836020870160208301376000602085830101528094505050505092915050565b60008060408385031215611f0c57600080fd5b823567ffffffffffffffff80821115611f2457600080fd5b611f3086838701611e6c565b93506020850135915080821115611f4657600080fd5b50611f5385828601611e6c565b9150509250929050565b6020808252825182820181905260009190848201906040850190845b81811015611e4a57835183529284019291840191600101611f79565b600080600060608486031215611faa57600080fd5b8335925060208401359150604084013567ffffffffffffffff811115611fcf57600080fd5b611fdb86828701611e6c565b9150509250925092565b60008060408385031215611ff857600080fd5b50508035926020909101359150565b6001600160a01b03841681526060810161202084611c26565b8360208301528215156040830152949350505050565b60006101008a835289602084015260018060a01b03808a16604085015288606085015281608085015261206b82850189611bca565b60a085019790975294151560c08401525050911660e09091015295945050505050565b600080604083850312156120a157600080fd5b8235915060208301356120b381611b7d565b809150509250929050565b602080825260139082015272155cd95c881b9bdd081c9959da5cdd195c9959606a1b604082015260600190565b602080825260119082015270556e617574686f72697a656420726f6c6560781b604082015260600190565b60208082526015908201527411195d9a58d948191bd95cc81b9bdd08195e1a5cdd605a1b604082015260600190565b600181811c9082168061215957607f821691505b602082108103610ee857634e487b7160e01b600052602260045260246000fd5b60006001820161219957634e487b7160e01b600052601160045260246000fd5b5060010190565b601f8211156121ea57600081815260208120601f850160051c810160208610156121c75750805b601f850160051c820191505b818110156121e6578281556001016121d3565b5050505b505050565b815167ffffffffffffffff81111561220957612209611e56565b61221d816122178454612145565b846121a0565b602080601f831160018114612252576000841561223a5750858301515b600019600386901b1c1916600185901b1785556121e6565b600085815260208120601f198616915b8281101561228157888601518255948401946001909101908401612262565b508582101561229f5787850151600019600388901b60f8161c191681555b5050505050600190811b01905550565b602081526000611baa6020830184611bca56fea2646970667358221220ba1c1f2aa56b9b0d0c07c5630f9bc6dc1c91f061fd8f0f7006e10df88f68244e64736f6c63430008130033",
  "immutableReferences": {},
  "source": "// SPDX-License-Identifier: MIT\npragma solidity ^0.8.19;\n\ncontract EWasteTracking {\n\n    // Enums\n    enum Role { None, Manufacturer, Consumer, Recycler, Regulator }\n    enum DeviceStatus { Manufactured, InUse, Collected, Destroyed, Recycled }\n\n    // Structs\n    struct User {\n        address walletAddress;\n        Role role;\n        bool isRegistered;\n    }\n\n    struct Device {\n        uint256 id;\n        string name;\n        string manufacturer;\n        address manufacturerAddress;\n        address currentOwner;\n        DeviceStatus status;\n        uint256 manufacturedDate;\n        uint256 lastUpdated;\n        bool exists;\n    }\n\n    struct RecyclingReport {\n        uint256 id;\n        uint256 deviceId;\n        address recyclerAddress;\n        uint256 weight;\n        string components;\n        uint256 timestamp;\n        bool verified;\n        address verifiedBy;\n        bool exists;\n    }\n\n    // State variables\n    mapping(address => User) public users;\n    mapping(uint256 => Device) public devices;\n    mapping(uint256 => RecyclingReport) public recyclingReports;\n    mapping(uint256 => address[]) public deviceOwnerHistory;\n    mapping(address => uint256[]) private ownerDevices;\n\n    uint256 public deviceCount;\n    uint256 public reportCount;\n\n    // Events\n    event UserRegistered(address indexed user, Role role);\n    event DeviceRegistered(uint256 indexed deviceId, string name, address indexed manufacturer);\n    event OwnershipTransferred(uint256 indexed deviceId, address indexed from, address indexed to);\n    event StatusUpdated(uint256 indexed deviceId, DeviceStatus status);\n    event RecyclingReportSubmitted(uint256 indexed reportId, uint256 indexed deviceId, address indexed recycler);\n    event ReportVerified(uint256 indexed reportId, address indexed verifiedBy);\n\n    // Modifiers\n    modifier onlyRole(Role _role) {\n        require(users[msg.sender].isRegistered, \"User not registered\");\n        require(users[msg.sender].role == _role, \"Unauthorized role\");\n        _;\n    }\n\n    modifier onlyDeviceOwner(uint256 _deviceId) {\n        require(devices[_deviceId].exists, \"Device does not exist\");\n        require(devices[_deviceId].currentOwner == msg.sender, \"Not the device owner\");\n        _;\n    }\n\n    modifier deviceExists(uint256 _deviceId) {\n        require(devices[_deviceId].exists, \"Device does not exist\");\n        _;\n    }\n\n    modifier reportExists(uint256 _reportId) {\n        require(recyclingReports[_reportId].exists, \"Report does not exist\");\n        _;\n    }\n\n    // User Management Functions\n    function registerUser(Role _role) external {\n        require(_role != Role.None, \"Invalid role\");\n        require(!users[msg.sender].isRegistered, \"User already registered\");\n\n        users[msg.sender] = User({\n            walletAddress: msg.sender,\n            role: _role,\n            isRegistered: true\n        });\n\n        emit UserRegistered(msg.sender, _role);\n    }\n\n    function getUserRole(address _user) external view returns (Role) {\n        return users[_user].role;\n    }\n\n    function isUserRegistered(address _user) external view returns (bool) {\n        return users[_user].isRegistered;\n    }\n\n    // Device Management Functions\n    function registerDevice(string memory _name, string memory _manufacturer)\n        external\n        onlyRole(Role.Manufacturer)\n        returns (uint256)\n    {\n        deviceCount++;\n        uint256 newDeviceId = deviceCount;\n\n        devices[newDeviceId] = Device({\n            id: newDeviceId,\n            name: _name,\n            manufacturer: _manufacturer,\n            manufacturerAddress: msg.sender,\n            currentOwner: msg.sender,\n            status: DeviceStatus.Manufactured,\n            manufacturedDate: block.timestamp,\n            lastUpdated: block.timestamp,\n            exists: true\n        });\n\n        deviceOwnerHistory[newDeviceId].push(msg.sender);\n        ownerDevices[msg.sender].push(newDeviceId);\n\n        emit DeviceRegistered(newDeviceId, _name, msg.sender);\n\n        return newDeviceId;\n    }\n\n    function transferOwnership(uint256 _deviceId, address _newOwner)\n        external\n        onlyDeviceOwner(_deviceId)\n    {\n        require(_newOwner != address(0), \"Invalid new owner address\");\n        require(_newOwner != msg.sender, \"Cannot transfer to yourself\");\n        require(users[_newOwner].isRegistered, \"New owner not registered\");\n\n        address previousOwner = devices[_deviceId].currentOwner;\n        devices[_deviceId].currentOwner = _newOwner;\n        devices[_deviceId].status = DeviceStatus.InUse;\n        devices[_deviceId].lastUpdated = block.timestamp;\n\n        deviceOwnerHistory[_deviceId].push(_newOwner);\n        ownerDevices[_newOwner].push(_deviceId);\n\n        emit OwnershipTransferred(_deviceId, previousOwner, _newOwner);\n    }\n\n    // Function for consumers to claim newly manufactured devices\n    function claimDevice(uint256 _deviceId)\n        external\n        deviceExists(_deviceId)\n    {\n        require(users[msg.sender].isRegistered, \"User not registered\");\n        require(users[msg.sender].role == Role.Consumer, \"Only consumers can claim devices\");\n        require(devices[_deviceId].status == DeviceStatus.Manufactured, \"Device already claimed\");\n        require(devices[_deviceId].currentOwner != msg.sender, \"Already owner\");\n\n        address previousOwner = devices[_deviceId].currentOwner;\n        devices[_deviceId].currentOwner = msg.sender;\n        devices[_deviceId].status = DeviceStatus.InUse;\n        devices[_deviceId].lastUpdated = block.timestamp;\n\n        deviceOwnerHistory[_deviceId].push(msg.sender);\n        ownerDevices[msg.sender].push(_deviceId);\n\n        emit OwnershipTransferred(_deviceId, previousOwner, msg.sender);\n    }\n\n    function updateDeviceStatus(uint256 _deviceId, DeviceStatus _status)\n        external\n        onlyRole(Role.Recycler)\n        deviceExists(_deviceId)\n    {\n        require(_status == DeviceStatus.Collected ||\n                _status == DeviceStatus.Destroyed ||\n                _status == DeviceStatus.Recycled,\n                \"Invalid status for recycler\");\n\n        devices[_deviceId].status = _status;\n        devices[_deviceId].lastUpdated = block.timestamp;\n\n        emit StatusUpdated(_deviceId, _status);\n    }\n\n    function getDevice(uint256 _deviceId)\n        external\n        view\n        deviceExists(_deviceId)\n        returns (\n            uint256 id,\n            string memory name,\n            string memory manufacturer,\n            address manufacturerAddress,\n            address currentOwner,\n            DeviceStatus status,\n            uint256 manufacturedDate,\n            uint256 lastUpdated\n        )\n    {\n        Device memory device = devices[_deviceId];\n        return (\n            device.id,\n            device.name,\n            device.manufacturer,\n            device.manufacturerAddress,\n            device.currentOwner,\n            device.status,\n            device.manufacturedDate,\n            device.lastUpdated\n        );\n    }\n\n    function getDeviceHistory(uint256 _deviceId)\n        external\n        view\n        deviceExists(_deviceId)\n        returns (address[] memory)\n    {\n        return deviceOwnerHistory[_deviceId];\n    }\n\n    function getDevicesByOwner(address _owner) external view returns (uint256[] memory) {\n        return ownerDevices[_owner];\n    }\n\n    // Recycling Report Functions\n    function submitRecyclingReport(\n        uint256 _deviceId,\n        uint256 _weight,\n        string memory _components\n    )\n        external\n        onlyRole(Role.Recycler)\n        deviceExists(_deviceId)\n        returns (uint256)\n    {\n        require(\n            devices[_deviceId].status == DeviceStatus.Collected ||\n            devices[_deviceId].status == DeviceStatus.Destroyed ||\n            devices[_deviceId].status == DeviceStatus.Recycled,\n            \"Device not ready for recycling report\"\n        );\n\n        reportCount++;\n        uint256 newReportId = reportCount;\n\n        recyclingReports[newReportId] = RecyclingReport({\n            id: newReportId,\n            deviceId: _deviceId,\n            recyclerAddress: msg.sender,\n            weight: _weight,\n            components: _components,\n            timestamp: block.timestamp,\n            verified: false,\n            verifiedBy: address(0),\n            exists: true\n        });\n\n        emit RecyclingReportSubmitted(newReportId, _deviceId, msg.sender);\n\n        return newReportId;\n    }\n\n    function verifyReport(uint256 _reportId)\n        external\n        onlyRole(Role.Regulator)\n        reportExists(_reportId)\n    {\n        require(!recyclingReports[_reportId].verified, \"Report already verified\");\n\n        recyclingReports[_reportId].verified = true;\n        recyclingReports[_reportId].verifiedBy = msg.sender;\n\n        emit ReportVerified(_reportId, msg.sender);\n    }\n\n    function getRecyclingReport(uint256 _reportId)\n        external\n        view\n        reportExists(_reportId)\n        returns (\n            uint256 id,\n            uint256 deviceId,\n            address recyclerAddress,\n            uint256 weight,\n            string memory components,\n            uint256 timestamp,\n            bool verified,\n            address verifiedBy\n        )\n    {\n        RecyclingReport memory report = recyclingReports[_reportId];\n        return (\n            report.id,\n            report.deviceId,\n            report.recyclerAddress,\n            report.weight,\n            report.components,\n            report.timestamp,\n            report.verified,\n            report.verifiedBy\n        );\n    }\n\n    // Helper function to get all devices (for regulators)\n    function getAllDevices() external view returns (uint256) {\n        return deviceCount;\n    }\n\n    // Helper function to get all reports\n    function getAllReports() external view returns (uint256) {\n        return reportCount;\n    }\n}\n",
  "sourcePath": "C:\\Users\\Dhana\\Desktop\\blockchain\\blockchain\\contracts\\EWasteTracking.sol",
  "compiler": {
    "name": "solc",
    "version": "0.8.19+commit.7dd6d404.Emscripten.clang"
  },
  "schemaVersion": "3.4.16",
  "updatedAt": "2025-12-04T01:08:31.297Z",
  "networkType": "ethereum",
  "devdoc": {
    "kind": "dev",
    "methods": {},
    "version": 1
  },
  "userdoc": {
    "kind": "user",
    "methods": {},
    "version": 1
  }
}